S010000055656234413134612E73726563BD
S11300000C942A000C943C000C943C000C943C008E
S11300100C943C000C943C000C943C000C943C006C
S11300200C943C000C943C000C94AC000C943C00EC
S11300300C943C000C943C000C943C000C943C004C
S11300400C943C000C943C000C943C000C943C003C
S11300500C943C0011241FBECFE5D8E0DEBFCDBF19
S113006020E0A0E6B0E001C01D92A236B207E1F79D
S11300700E94A3000C9413010C94000083B78460C5
S113008083BF089583B78E7F83BF83B78D7F83BF7C
S113009083B78B7F83BF0895CF92DF92EF92FF9255
S11300A0CF93DF93C82FD92F6B010E944200FC2EFF
S11300B0E12C970140E050E060E072E18AE790E0D3
S11300C00E94E500215031092CBF1092610010926A
S11300D060002C2F3D2FD6010E94040128EE33E04E
S11300E040E050E00E94C30069017A010E943E0092
S11300F08091600090916100A0E0B0E0C816D9063C
S1130100EA06FB06A8F70E944200DF91CF91FF9018
S1130110EF90DF90CF90089589B7826089BF83B74D
S1130120806183BF83B7886083BF0E9442001CBE86
S1130130789408950E948C008FEF8ABB8EEF8BBB5E
S113014088E087BB08950E949A0064EF71E088E814
S113015093E10E944C00F9CF1F920F920FB60F92B9
S113016011248F939F938091600090916100019678
S113017090936100809360009F918F910F900FBEC8
S11301800F901F901895A1E21A2EAA1BBB1BFD010C
S11301900DC0AA1FBB1FEE1FFF1FA217B307E40762
S11301A0F50720F0A21BB30BE40BF50B661F771FBA
S11301B0881F991F1A9469F760957095809590959A
S11301C09B01AC01BD01CF010895052E97FB1EF4E0
S11301D000940E94FC0057FD07D00E94C30007FC56
S11301E003D04EF40C94FC00509540953095219525
S11301F03F4F4F4F5F4F089590958095709561954F
S11302007F4F8F4F9F4F0895A29FB001B39FC001AE
S1130210A39F700D811D1124911DB29F700D811D2E
S10D02201124911D0895F894FFCFF6
S9030000FC
