:100000000C942A000C943F000C943F000C943F0089
:100010000C943F000C943F000C943F000C943F0064
:100020000C943F000C943F000C943F000C943F0054
:100030000C943F000C943F000C943F000C943F0044
:100040000C943F000C943F000C943F000C943F0034
:100050000C943F0011241FBECFE5D8E0DEBFCDBF1A
:1000600010E0A0E6B0E0E4EDF0E002C005900D92F3
:10007000AE37B107D9F70E9441000C9468000C9488
:1000800000008FEF87BB88BB83E390E00E945100A4
:1000900080E690E00E9458000E946400809588BB32
:1000A000F7CF90BD89B988ED8AB986E880BD0895FB
:1000B000FC019081992339F031965D9BFECF9CB96C
:1000C00091919111FACF08955F9BFECF8CB1089565
:0400D000F894FFCFD2
:1000D400506C656173652073656E64206465636943
:0E00E4006D616C206E756D6265720D0A000014
:00000001FF
