S00C0000556562372E73726563C5
S11300000C942A000C9447000C9447000C9447006D
S11300100C9447000C9447000C9447000C94470040
S11300200C9447000C9447000C9447000C94470030
S11300300C9447000C9447000C9447000C94470020
S11300400C9447000C9447000C9447000C94470010
S11300500C94470011241FBECFE5D8E0DEBFCDBF0E
S113006010E0A0E6B0E0EAE5F8E002C005900D92E9
S1130070AC3EB107D9F720E0ACEEB0E001C01D9270
S1130080A23FB207E1F70E94DC000C942B040C940D
S1130090000010BC83E389B988E18AB986E880BD91
S11300A008955D9BFECF8CB908950E94510080E0B5
S11300B090E0089511B884E080B98EE690E00E9443
S11300C03301089584EA86BF06B607FEFDCF81B1E9
S11300D0809588BB81B11F928F938FE790E09F93A7
S11300E08F930E941D0181B1887F0F900F900F9014
S11300F00F90883021F083E990E00E943301089545
S113010084EA86BF06B607FEFDCF81B11F928F93A6
S113011080EA90E09F938F930E941D0181B18095A6
S113012088BB91B1987F81E00F900F900F900F9052
S1130130903109F080E0089584E986BF81B180950B
S113014088BB0895CF93C62F83B984E886BF06B6CB
S113015007FEFDCF81B11F928F9386EB90E09F93B2
S11301608F930E941D0181B1809588BB21B1287FA6
S113017030E06C2F70E081E00F900F900F900F90A3
S11301802617370709F080E0CF910895CF9384E8CC
S113019086BF06B607FEFDCFC3B11F92CF9387EC8F
S11301A090E09F938F930E941D010F900F900F90EA
S11301B00F908C2FCF9108958FEF87BB88BB80E67B
S11301C090E09093EF008093EE000E9449008DED43
S11301D090E00E9433010E945A000E94620068E18C
S11301E080EA0E94A20068E281E00E94A20068E224
S11301F08AEF0E94A2000E949C002FEF81EE94E0FF
S1130200215080409040E1F700C000000E9462004D
S113021068E180EA0E94A20068E281E00E94A200F4
S11302200E94800060E481EA0E94A2000E94C6004D
S11302300E949C0080E090E00895A0E0B0E0E3E23A
S1130240F1E00C940404AE014B5F5F4FFA0161913D
S11302507191AF018091EE009091EF000E946301D3
S1130260E2E00C9420040F931F93CF93DF93E0916B
S1130270EE00F091EF00238121FF1BC08C01D0E040
S1130280C0E0F80181918F016091EE007091EF0060
S1130290DB011896ED91FC911997882331F00995AB
S11302A0892B79F3DFEFCFEFECCF8AE00995892B27
S11302B019F08FEF9FEF02C08D2F9C2FDF91CF910C
S11302C01F910F910895ABE0B0E0E9E6F1E00C94E2
S11302D0F4036C017B018A01FC011782168283817D
S11302E081FFCCC1CE0101963C01F6019381F70157
S11302F093FD859193FF81917F01882309F4BAC10D
S1130300853239F493FD859193FF81917F01853284
S113031029F4B60190E00E945A03E7CF912C212CD6
S1130320312CFFE1F315D8F08B3279F038F48032B8
S113033079F08332A1F4232D20611DC08D3261F048
S1130340803369F4232D216016C0832D8260382EFA
S1130350E32DE4603E2E2AC0F32DF8601DC037FC67
S11303602DC020ED280F2A3040F08E32B9F436FC2F
S113037081C1232D2064322E19C036FE06C08AE0C6
S1130380989E200D1124922E11C0EAE02E9E200D7D
S11303901124222EF32DF0623F2E08C08C3621F456
S11303A0832D8068382E02C0883641F4F70193FD0E
S11303B0859193FF81917F018111B3CF982F9F7D08
S11303C09554933028F40C5F1F4F9FE399830DC01D
S11303D0833631F0833771F0833509F059C021C079
S11303E0F801808189830E5F1F4F88248394912CA8
S11303F0530113C02801F2E04F0E511CF801A080F4
S1130400B18036FE03C0692D70E002C06FEF7FEF4C
S1130410C5010E944F034C018201F32DFF773F2E4B
S113042016C0280122E0420E511CF801A080B180C0
S113043036FE03C0692D70E002C06FEF7FEFC50187
S11304400E9444034C01F32DF0683F2E820133FCDB
S11304501BC0822D90E088169906B0F4B60180E2A4
S113046090E00E945A032A94F4CFF50137FC859159
S113047037FE81915F01B60190E00E945A0321107A
S11304802A9421E0821A91088114910471F7E8C03A
S1130490843611F0893641F5F80137FE07C06081D2
S11304A07181828193810C5F1F4F08C060817181CB
S11304B0072E000C880B990B0E5F1F4FF32DFF7650
S11304C03F2E97FF09C090958095709561957F4F59
S11304D08F4F9F4FF0683F2E2AE030E0A3010E9427
S11304E09603882E861845C0853731F4232D2F7E38
S11304F0B22E2AE030E025C0932D997FB92E8F3695
S1130500C1F018F4883579F0B5C0803719F0883710
S113051021F0B0C0E92FE061BE2EB4FE0DC0FB2D6A
S1130520F460BF2E09C034FE0AC0292F2660B22E03
S113053006C028E030E005C020E130E002C020E140
S113054032E0F801B7FE07C0608171818281938136
S11305500C5F1F4F06C06081718180E090E00E5FE8
S11305601F4FA3010E949603882E8618FB2DFF7748
S11305703F2E36FE0DC0232D2E7FA22E891458F453
S113058034FE0BC032FC09C0832D8E7EA82E05C01C
S1130590B82CA32C03C0B82C01C0B92CA4FE0FC0E6
S11305A0FE01E80DF11D8081803321F49A2D997E9E
S11305B0A92E09C0A2FE06C0B394B39404C08A2D28
S11305C0867809F0B394A3FC11C0A0FE06C0B2144F
S11305D088F4280C922C9B180EC0B21460F4B60157
S11305E080E290E00E945A03B394F7CFB21418F457
S11305F02B1802C0982C212CA4FE10C0B60180E355
S113060090E00E945A03A2FE17C0A1FC03C088E731
S113061090E002C088E590E0B6010CC08A2D86788F
S113062059F0A1FE02C08BE201C080E2A7FC8DE27A
S1130630B60190E00E945A03891438F4B60180E3AD
S113064090E00E945A039A94F7CF8A94F301E80D3C
S1130650F11D8081B60190E00E945A038110F5CF0C
S1130660222009F442CEB60180E290E00E945A03AF
S11306702A94F6CFF6018681978102C08FEF9FEF0F
S11306802B96E2E10C941004FC010590615070403B
S11306900110D8F7809590958E0F9F1F0895FC0147
S11306A06150704001900110D8F7809590958E0F9D
S11306B09F1F08950F931F93CF93DF93FB01238113
S11306C021FD03C08FEF9FEF2CC022FF16C046818F
S11306D05781248135814217530744F4A081B181A5
S11306E09D012F5F3F4F318320838C932681378177
S11306F02F5F3F4F3783268314C08B01EC01FB012E
S11307000084F185E02D0995892BE1F6D801169630
S11307108D919C911797019617969C938E9316979B
S1130720CE01DF91CF911F910F910895FA01AA276D
S1130730283051F1203181F1E8946F936E7F6E5F20
S11307407F4F8F4F9F4FAF4FB1E03ED0B4E03CD0CE
S1130750670F781F891F9A1FA11D680F791F8A1FB1
S1130760911DA11D6A0F711D811D911DA11D20D018
S113077009F468943F912AE0269F11243019305DD2
S11307803193DEF6CF010895462F4770405D4193C3
S1130790B3E00FD0C9F7F6CF462F4F70405D4A3310
S11307A018F0495D31FD4052419302D0A9F7EACFD8
S11307B0B4E0A6959795879577956795BA95C9F707
S11307C000976105710508959B01AC010A2E0694FA
S11307D05795479537952795BA95C9F7620F731FB3
S11307E0841F951FA01D08952F923F924F925F92F0
S11307F06F927F928F929F92AF92BF92CF92DF922D
S1130800EF92FF920F931F93CF93DF93CDB7DEB791
S1130810CA1BDB0B0FB6F894DEBF0FBECDBF099425
S11308202A88398848885F846E847D848C849B847C
S1130830AA84B984C884DF80EE80FD800C811B818A
S1130840AA81B981CE0FD11D0FB6F894DEBF0FBEB9
S10D0850CDBFED010895F894FFCF29
S113085A0000000200000000550000000000693298
S113086A6320696E697469616C697A65642E0069CA
S113087A32635F73746172743A2030782530325867
S113088A200A007374617274206572726F720D00AB
S113089A6932635F726573746172743A20307825C1
S11308AA303258200A006932635F74783A2030780B
S11308BA25303258200A006932635F646174615FCB
S11308CA72783A20307825303258200A00757361DC
S10F08DA72742073746172746564000011
S9030000FC
