:100000000C942A000C9447000C9447000C94470071
:100010000C9447000C9447000C9447000C94470044
:100020000C9447000C9447000C9447000C94470034
:100030000C9447000C9447000C9447000C94470024
:100040000C9447000C9447000C9447000C94470014
:100050000C94470011241FBECFE5D8E0DEBFCDBF12
:1000600010E0A0E6B0E0E8E0F9E002C005900D92F3
:10007000A23BB107D9F720E0A2EBB0E001C01D928E
:10008000A83BB207E1F70E942E010C9482040C9465
:100090000000A0980895F894A09AA8988FEB93E098
:1000A0000197F1F700C000000E9449009AEB9A9571
:1000B000F1F700C093B3E3E3F3E03197F1F700C049
:1000C0000000789481E08927817090E00895F89489
:1000D000A09AA89880E18A95F1F70E9449008AEADF
:1000E0008A95F1F700C078940895F894A09AA8989A
:1000F00080EA8A95F1F70E9449008AE18A95F1F732
:1001000000C0789408951F93CF93DF93182FC8E011
:10011000D0E010FF03C00E94670002C00E9475007B
:1001200016952197B1F7DF91CF911F9108950E9405
:100130004B00892B89F08CEC0E94830084E40E94A0
:100140008300989BFECF2FE78FE492E121508040FF
:100150009040E1F700C000000895F894A09AA89894
:1001600080E18A95F1F70E94490098E19A95F1F7AC
:1001700083B392E99A95F1F700C07894817008955D
:100180000F931F93CF9308E010E0C0E00E94AD00F2
:1001900020E8829FC0011124C695C82B0150110987
:1001A000A9F78C2FCF911F910F9108950F931F9353
:1001B000CF93DF930E944B00892BE9F08EE690E00D
:1001C0009F938F930E94740183E30E9483000F909A
:1001D0000F90C8E0D0E00EE710E00E94C0001F9230
:1001E0008F931F930F930E94740121970F900F908C
:1001F0000F900F9091F7DF91CF911F910F9108957C
:100200000F931F93CF93DF938C010E944B00892B98
:1002100079F08CEC0E9483008EEB0E948300E80151
:10022000075F1F4F0E94C0008993C017D107D1F705
:10023000DF91CF911F910F91089510BC83E389B98D
:1002400088E18AB986E880BD08955D9BFECF8CB9B0
:1002500008950E94250180E090E00895CF93DF93F8
:10026000CDB7DEB729970FB6F894DEBF0FBECDBF6E
:1002700080E690E09093B5008093B4000E941D0149
:100280008DE890E00E948A010E94D6000F2EF5E0D2
:10029000EF2EF02DF12C0BE910E00E949700CE011B
:1002A00001960E940001898180FD03C09F2D2F2DA2
:1002B00002C09E2D2F2D2F939F9386951F928F9373
:1002C0001F930F930E9474012FEF89E698E121504C
:1002D00080409040E1F700C000000F900F900F9019
:1002E0000F900F900F90D9CFA0E0B0E0EAE7F1E0D7
:1002F0000C945B04AE014B5F5F4FFA016191719109
:10030000AF018091B4009091B5000E94BA01E2E083
:100310000C9477040F931F93CF93DF93E091B40075
:10032000F091B500238121FF1BC08C01D0E0C0E01B
:10033000F80181918F016091B4007091B500DB01EB
:100340001896ED91FC911997882331F00995892B26
:1003500079F3DFEFCFEFECCF8AE00995892B19F025
:100360008FEF9FEF02C08D2F9C2FDF91CF911F91B8
:100370000F910895ABE0B0E0E0ECF1E00C944B0499
:100380006C017B018A01FC0117821682838181FF47
:10039000CCC1CE0101963C01F6019381F70193FD9A
:1003A000859193FF81917F01882309F4BAC1853239
:1003B00039F493FD859193FF81917F01853229F472
:1003C000B60190E00E94B103E7CF912C212C312C93
:1003D000FFE1F315D8F08B3279F038F4803279F000
:1003E0008332A1F4232D20611DC08D3261F0803352
:1003F00069F4232D216016C0832D8260382EE32DF1
:10040000E4603E2E2AC0F32DF8601DC037FC2DC0DD
:1004100020ED280F2A3040F08E32B9F436FC81C12D
:10042000232D2064322E19C036FE06C08AE0989E25
:10043000200D1124922E11C0EAE02E9E200D1124D1
:10044000222EF32DF0623F2E08C08C3621F4832D2E
:100450008068382E02C0883641F4F70193FD8591FB
:1004600093FF81917F018111B3CF982F9F7D955488
:10047000933028F40C5F1F4F9FE399830DC08336A0
:1004800031F0833771F0833509F059C021C0F8018C
:10049000808189830E5F1F4F88248394912C5301A0
:1004A00013C02801F2E04F0E511CF801A080B1806A
:1004B00036FE03C0692D70E002C06FEF7FEFC5010B
:1004C0000E94A6034C018201F32DFF773F2E16C038
:1004D000280122E0420E511CF801A080B18036FEB6
:1004E00003C0692D70E002C06FEF7FEFC5010E946D
:1004F0009B034C01F32DF0683F2E820133FC1BC09F
:10050000822D90E088169906B0F4B60180E290E062
:100510000E94B1032A94F4CFF50137FC859137FE90
:1005200081915F01B60190E00E94B10321102A94ED
:1005300021E0821A91088114910471F7E8C0843691
:1005400011F0893641F5F80137FE07C060817181ED
:10055000828193810C5F1F4F08C060817181072EDB
:10056000000C880B990B0E5F1F4FF32DFF763F2E6B
:1005700097FF09C090958095709561957F4F8F4F3B
:100580009F4FF0683F2E2AE030E0A3010E94ED0368
:10059000882E861845C0853731F4232D2F7EB22E44
:1005A0002AE030E025C0932D997FB92E8F36C1F017
:1005B00018F4883579F0B5C0803719F0883721F004
:1005C000B0C0E92FE061BE2EB4FE0DC0FB2DF4607B
:1005D000BF2E09C034FE0AC0292F2660B22E06C0E5
:1005E00028E030E005C020E130E002C020E132E048
:1005F000F801B7FE07C060817181828193810C5F31
:100600001F4F06C06081718180E090E00E5F1F4F38
:10061000A3010E94ED03882E8618FB2DFF773F2E45
:1006200036FE0DC0232D2E7FA22E891458F434FEE1
:100630000BC032FC09C0832D8E7EA82E05C0B82CBD
:10064000A32C03C0B82C01C0B92CA4FE0FC0FE011E
:10065000E80DF11D8081803321F49A2D997EA92E19
:1006600009C0A2FE06C0B394B39404C08A2D867854
:1006700009F0B394A3FC11C0A0FE06C0B21488F424
:10068000280C922C9B180EC0B21460F4B60180E2C4
:1006900090E00E94B103B394F7CFB21418F42B1872
:1006A00002C0982C212CA4FE10C0B60180E390E07B
:1006B0000E94B103A2FE17C0A1FC03C088E790E02E
:1006C00002C088E590E0B6010CC08A2D867859F00A
:1006D000A1FE02C08BE201C080E2A7FC8DE2B60160
:1006E00090E00E94B103891438F4B60180E390E0F1
:1006F0000E94B1039A94F7CF8A94F301E80DF11D9B
:100700008081B60190E00E94B1038110F5CF2220D4
:1007100009F442CEB60180E290E00E94B1032A942F
:10072000F6CFF6018681978102C08FEF9FEF2B965F
:10073000E2E10C946704FC010590615070400110E7
:10074000D8F7809590958E0F9F1F0895FC016150FA
:10075000704001900110D8F7809590958E0F9F1FE3
:1007600008950F931F93CF93DF93FB01238121FD06
:1007700003C08FEF9FEF2CC022FF16C04681578128
:10078000248135814217530744F4A081B1819D0132
:100790002F5F3F4F318320838C93268137812F5FDA
:1007A0003F4F3783268314C08B01EC01FB0100848B
:1007B000F185E02D0995892BE1F6D80116968D91EA
:1007C0009C911797019617969C938E931697CE013E
:1007D000DF91CF911F910F910895FA01AA27283038
:1007E00051F1203181F1E8946F936E7F6E5F7F4FFE
:1007F0008F4F9F4FAF4FB1E03ED0B4E03CD0670F7A
:10080000781F891F9A1FA11D680F791F8A1F911DCC
:10081000A11D6A0F711D811D911DA11D20D009F41C
:1008200068943F912AE0269F11243019305D31935E
:10083000DEF6CF010895462F4770405D4193B3E047
:100840000FD0C9F7F6CF462F4F70405D4A3318F0EE
:10085000495D31FD4052419302D0A9F7EACFB4E09F
:10086000A6959795879577956795BA95C9F7009757
:100870006105710508959B01AC010A2E06945795F8
:10088000479537952795BA95C9F7620F731F841F4F
:10089000951FA01D08952F923F924F925F926F92E5
:1008A0007F928F929F92AF92BF92CF92DF92EF9200
:1008B000FF920F931F93CF93DF93CDB7DEB7CA1B81
:1008C000DB0B0FB6F894DEBF0FBECDBF09942A88AC
:1008D000398848885F846E847D848C849B84AA8454
:1008E000B984C884DF80EE80FD800C811B81AA81E1
:1008F000B981CE0FD11D0FB6F894DEBF0FBECDBFAC
:08090000ED010895F894FFCF0A
:1009080000000002000000002901000000007265DC
:1009180073657420737563636565646564006461F9
:1009280074613A20307825303258200A0075736196
:1009380072742073746172746564005261756D74A9
:10094800656D706572617475722025642C25640A62
:020958000D0090
:00000001FF
