S00F0000556562385F54442E73726563CA
S11300000C942A000C9447000C9447000C9447006D
S11300100C9447000C9447000C9447000C94470040
S11300200C9447000C9447000C9447000C94470030
S11300300C9447000C9447000C9447000C94470020
S11300400C9447000C9447000C9447000C94470010
S11300500C94470011241FBECFE5D8E0DEBFCDBF0E
S113006010E0A0E6B0E0E2E9F9E002C005900D92EC
S1130070A83FB107D9F720E0A8EFB0E001C01D9276
S1130080AE3FB207E1F70E9474010C94C7040C94CC
S11300900000A0980895CF93F894A09AA8988FEBA5
S11300A093E00197F1F700C000000E9449009AEB29
S11300B09A95F1F700C0C3B3C170C8BB83E393E062
S11300C00197F1F700C0000078948EE690E00E945A
S11300D0CF018C2FCF910895F894A09AA89880E12D
S11300E08A95F1F70E9449008AEA8A95F1F700C0DF
S11300F0789484E790E00E94CF010895F894A09A40
S1130100A89880EA8A95F1F70E9449008AE18A95C5
S1130110F1F700C078948CE790E00E94CF01089535
S1130120CF92DF92EF92FF921F93CF93DF93182F1A
S1130130C0E0D0E00F2EF4E8EF2EF0E0FF2EF02D1B
S1130140812F8170C82ED12C1F928F93DF93CF9370
S1130150FF92EF920E94B9010F900F900F900F90B1
S11301600F900F90CA94CD2819F40E946C0002C01D
S11301700E947E0016952196C830D10509F7DF91BB
S1130180CF911F91FF90EF90DF90CF9008950E9440
S11301904B008CEC0E94900084E40E94900087E95C
S11301A090E00E94CF01989BFECF2FE78FE492E16D
S11301B0215080409040E1F700C0000089EA90E0BF
S11301C00E94CF010895F894A09AA89880E18A9596
S11301D0F1F70E94490098E19A95F1F783B392E907
S11301E09A95F1F700C07894817008950F931F9346
S11301F0CF9308E010E0C0E00E94E30020E8829F73
S1130200C0011124C695C82B01501109A9F78C2FE0
S1130210CF911F910F9108950F931F93CF93DF9365
S11302200E944B0083E30E949000C8E0D0E006ECFB
S113023010E00E94F6001F928F931F930F930E9469
S1130240B90121970F900F900F900F9091F7DF91C4
S1130250CF911F910F910895CF92DF92EF92FF9269
S11302601F93CF93DF936C010E944B008CEC0E9490
S113027090008EEB0E94900082EB90E00E94CF01F0
S1130280E60189E0C80ED11C0F2EFEEBEF2EF0E044
S1130290FF2EF02D0E94F600182F1F928F93FF92CD
S11302A0EF920E94B90119930F900F900F900F9045
S11302B0CC15DD0579F7DF91CF911F91FF90EF9079
S11302C0DF90CF90089510BC83E389B988E18AB99F
S11302D086E880BD08955D9BFECF8CB908950E9489
S11302E06B0180E090E00895CF93DF93CDB7DEB744
S11302F029970FB6F894DEBF0FBECDBF80E690E01D
S11303009093FB008093FA000E94630185ED90E0D6
S11303100E94CF018FEF87BB88BB0E940C010E9413
S1130320C700CE0101960E942C01898180FD03C083
S113033090E020E002C095E020E02F939F93869503
S11303401F928F9383EE90E09F938F930E94B90145
S11303500F900F900F900F900F900F9080E090E00F
S113036029960FB6F894DEBF0FBECDBFDF91CF91B3
S11303700895A0E0B0E0EFEBF1E00C94A004AE012E
S11303804B5F5F4FFA0161917191AF018091FA0067
S11303909091FB000E94FF01E2E00C94BC040F93D7
S11303A01F93CF93DF93E091FA00F091FB00238138
S11303B021FF1BC08C01D0E0C0E0F80181918F01C6
S11303C06091FA007091FB00DB011896ED91FC91AD
S11303D01997882331F00995892B79F3DFEFCFEF53
S11303E0ECCF8AE00995892B19F08FEF9FEF02C0BB
S11303F08D2F9C2FDF91CF911F910F910895ABE02A
S1130400B0E0E5E0F2E00C9490046C017B018A0119
S1130410FC0117821682838181FFCCC1CE01019633
S11304203C01F6019381F70193FD859193FF81913E
S11304307F01882309F4BAC1853239F493FD85918B
S113044093FF81917F01853229F4B60190E00E94E7
S1130450F603E7CF912C212C312CFFE1F315D8F0D2
S11304608B3279F038F4803279F08332A1F4232D81
S113047020611DC08D3261F0803369F4232D216029
S113048016C0832D8260382EE32DE4603E2E2AC0F0
S1130490F32DF8601DC037FC2DC020ED280F2A3045
S11304A040F08E32B9F436FC81C1232D2064322E03
S11304B019C036FE06C08AE0989E200D1124922EA3
S11304C011C0EAE02E9E200D1124222EF32DF0629D
S11304D03F2E08C08C3621F4832D8068382E02C04C
S11304E0883641F4F70193FD859193FF81917F0153
S11304F08111B3CF982F9F7D9554933028F40C5FCE
S11305001F4F9FE399830DC0833631F0833771F019
S1130510833509F059C021C0F801808189830E5FB9
S11305201F4F88248394912C530113C02801F2E0B7
S11305304F0E511CF801A080B18036FE03C0692D16
S113054070E002C06FEF7FEFC5010E94EB034C0126
S11305508201F32DFF773F2E16C0280122E0420EC0
S1130560511CF801A080B18036FE03C0692D70E0F3
S113057002C06FEF7FEFC5010E94E0034C01F32D31
S1130580F0683F2E820133FC1BC0822D90E0881658
S11305909906B0F4B60180E290E00E94F6032A9432
S11305A0F4CFF50137FC859137FE81915F01B601E7
S11305B090E00E94F60321102A9421E0821A910807
S11305C08114910471F7E8C0843611F0893641F53D
S11305D0F80137FE07C060817181828193810C5FCD
S11305E01F4F08C060817181072E000C880B990B86
S11305F00E5F1F4FF32DFF763F2E97FF09C0909596
S11306008095709561957F4F8F4F9F4FF0683F2E77
S11306102AE030E0A3010E943204882E861845C0E7
S1130620853731F4232D2F7EB22E2AE030E025C009
S1130630932D997FB92E8F36C1F018F4883579F04F
S1130640B5C0803719F0883721F0B0C0E92FE061D8
S1130650BE2EB4FE0DC0FB2DF460BF2E09C034FEC7
S11306600AC0292F2660B22E06C028E030E005C05B
S113067020E130E002C020E132E0F801B7FE07C01B
S113068060817181828193810C5F1F4F06C06081FC
S1130690718180E090E00E5F1F4FA3010E9432043D
S11306A0882E8618FB2DFF773F2E36FE0DC0232D96
S11306B02E7FA22E891458F434FE0BC032FC09C0DC
S11306C0832D8E7EA82E05C0B82CA32C03C0B82C75
S11306D001C0B92CA4FE0FC0FE01E80DF11D8081FC
S11306E0803321F49A2D997EA92E09C0A2FE06C05A
S11306F0B394B39404C08A2D867809F0B394A3FC10
S113070011C0A0FE06C0B21488F4280C922C9B18C9
S11307100EC0B21460F4B60180E290E00E94F603C9
S1130720B394F7CFB21418F42B1802C0982C212CD0
S1130730A4FE10C0B60180E390E00E94F603A2FE7E
S113074017C0A1FC03C088E790E002C088E590E0F0
S1130750B6010CC08A2D867859F0A1FE02C08BE246
S113076001C080E2A7FC8DE2B60190E00E94F6038E
S1130770891438F4B60180E390E00E94F6039A9459
S1130780F7CF8A94F301E80DF11D8081B60190E062
S11307900E94F6038110F5CF222009F442CEB6015F
S11307A080E290E00E94F6032A94F6CFF601868157
S11307B0978102C08FEF9FEF2B96E2E10C94AC047B
S11307C0FC010590615070400110D8F78095909518
S11307D08E0F9F1F0895FC0161507040019001101D
S11307E0D8F7809590958E0F9F1F08950F931F93B0
S11307F0CF93DF93FB01238121FD03C08FEF9FEF94
S11308002CC022FF16C046815781248135814217AE
S1130810530744F4A081B1819D012F5F3F4F318381
S113082020838C93268137812F5F3F4F3783268324
S113083014C08B01EC01FB010084F185E02D0995C6
S1130840892BE1F6D80116968D919C911797019604
S113085017969C938E931697CE01DF91CF911F919B
S11308600F910895FA01AA27283051F1203181F11E
S1130870E8946F936E7F6E5F7F4F8F4F9F4FAF4FA4
S1130880B1E03ED0B4E03CD0670F781F891F9A1FB7
S1130890A11D680F791F8A1F911DA11D6A0F711D6B
S11308A0811D911DA11D20D009F468943F912AE077
S11308B0269F11243019305D3193DEF6CF0108955F
S11308C0462F4770405D4193B3E00FD0C9F7F6CF90
S11308D0462F4F70405D4A3318F0495D31FD405258
S11308E0419302D0A9F7EACFB4E0A69597958795EE
S11308F077956795BA95C9F70097610571050895CD
S11309009B01AC010A2E0694579547953795279578
S1130910BA95C9F7620F731F841F951FA01D089510
S11309202F923F924F925F926F927F928F929F92FB
S1130930AF92BF92CF92DF92EF92FF920F931F93E9
S1130940CF93DF93CDB7DEB7CA1BDB0B0FB6F8949A
S1130950DEBF0FBECDBF09942A88398848885F84DA
S11309606E847D848C849B84AA84B984C884DF804B
S1130970EE80FD800C811B81AA81B981CE0FD11D2F
S11309800FB6F894DEBF0FBECDBFED010895F89405
S1050990FFCF93
S113099200000002000000006F0100000000726508
S11309A273657400777269746520310077726974B3
S11309B265203000577269746520626974202325AA
S11309C2643A2025640A007374617274206D65614F
S11309D2737572656D656E740066696E69736865B8
S11309E26400736372617463687061643A00736370
S11309F2726174636820646174613A2030782530CE
S1130A023258200A007573617274207374617274AF
S1130A126564005261756D74656D7065726174759B
S10B0A22722025642C256400F8
S9030000FC
