S0150000756562756E67345F6D7573696B2E73726563CD
S11300000C942A000C9447000C9447000C9447006D
S11300100C9447000C9447000C9447000C946B001C
S11300200C9447000C9447000C945C000C9447001B
S11300300C9447000C9447000C9447000C94470020
S11300400C9447000C9447000C9447000C94470010
S11300500C94470011241FBECFE5D8E0DEBFCDBF0E
S113006010E0A0E6B0E0E6E1F6E002C005900D92F3
S1130070A83DB107D9F720E0A8EDB0E001C01D927A
S1130080AA3DB207E1F70E9458000C9409030C94AE
S113009000008FEF87BB82E189BF8EB58D608EBD76
S11300A083B78C6083BF8AE090E09BBD8ABD0895CE
S11300B00E9449007894FFCF1F920F920FB60F92BF
S11300C011248F9388B3809588BB8F910F900FBEB6
S11300D00F901F9018951F920F920FB60F92112434
S11300E02F933F934F935F936F937F938F939F933C
S11300F0AF93BF93EF93FF938091D8009091D90071
S11301004E9721F41092D9001092D800E091D800B3
S1130110F091D900EE0FFF1FEE0FFF1FE05AFF4FC3
S113012080819181892B21F489B78D7F89BF03C098
S113013089B7826089BFE091D800F091D900EE0FB1
S1130140FF1FEE0FFF1FE05AFF4F6081718180E0B7
S113015090E00E940E029B01AC0160E074E284E72F
S113016094E40E946D019B01AC010E94010120E016
S113017030E040E85FE30E9400010E94DF016CBFB1
S1130180E091D800F091D900EE0FFF1FEE0FFF1F92
S1130190E05AFF4F6281738180E090E00E940E027A
S11301A020E030E04AE754E40E946D0120E034E2AC
S11301B044E754E40E949C0220E030E040E85FE31E
S11301C00E9400010E94DF017BBD6ABD8091D800BE
S11301D09091D90001969093D9008093D800FF9113
S11301E0EF91BF91AF919F918F917F916F915F91AB
S11301F04F913F912F910F900FBE0F901F90189524
S11302005058BB27AA270E9418010C9462020E942E
S1130210540238F00E945B0220F039F49F3F19F435
S113022026F40C9451020EF4E095E7FB0C944B0277
S1130230E92F0E94730258F3BA1762077307840701
S1130240950720F079F4A6F50C9495020EF4E09548
S11302500B2EBA2FA02D0B01B90190010C01CA017C
S1130260A0011124FF27591B99F0593F50F4503E27
S113027068F11A16F040A22F232F342F4427585F19
S1130280F3CF469537952795A795F0405395C9F731
S11302907EF41F16BA0B620B730B840BBAF09150E9
S11302A0A1F0FF0FBB1F661F771F881FC2F70EC088
S11302B0BA0F621F731F841F48F48795779567955B
S11302C0B795F7959E3F08F0B0CF9395880F08F047
S11302D09927EE0F9795879508950E9481010C94B4
S11302E062020E945B0258F00E94540240F029F41A
S11302F05F3F29F00C944B0251110C9496020C941C
S113030051020E94730268F39923B1F3552391F3C8
S1130310951B550BBB27AA2762177307840738F070
S11303209F5F5F4F220F331F441FAA1FA9F335D0CD
S11303300E2E3AF0E0E832D091505040E695001C81
S1130340CAF72BD0FE2F29D0660F771F881FBB1F3B
S1130350261737074807AB07B0E809F0BB0B802D19
S1130360BF01FF2793585F4F3AF09E3F510578F045
S11303700C944B020C9496025F3FE4F3983ED4F342
S1130380869577956795B795F7959F5FC9F7880F19
S1130390911D9695879597F90895E1E0660F771F6B
S11303A0881FBB1F621773078407BA0720F0621BFC
S11303B0730B840BBA0BEE1F88F7E09508950E9427
S11303C07B0288F09F5798F0B92F9927B751B0F066
S11303D0E1F0660F771F881F991F1AF0BA95C9F7C5
S11303E014C0B13091F00E949502B1E008950C94CC
S11303F09502672F782F8827B85F39F0B93FCCF37F
S1130400869577956795B395D9F73EF49095809541
S1130410709561957F4F8F4F9F4F0895E89409C061
S113042097FB3EF490958095709561957F4F8F4F23
S11304309F4F9923A9F0F92F96E9BB279395F69539
S1130440879577956795B795F111F8CFFAF4BB0FB7
S113045011F460FF1BC06F5F7F4F8F4F9F4F16C01B
S1130460882311F096E911C0772321F09EE8872FA5
S1130470762F05C0662371F096E8862F70E060E061
S11304802AF09A95660F771F881FDAF7880F9695DA
S1130490879597F9089597F99F6780E870E060E081
S11304A008959FEF80EC089500240A941616170609
S11304B018060906089500240A9412161306140651
S11304C005060895092E0394000C11F4882352F0B4
S11304D0BB0F40F4BF2B11F460FF04C06F5F7F4F6C
S11304E08F4F9F4F089557FD9058440F551F59F053
S11304F05F3F71F04795880F97FB991F61F09F3F0D
S113050079F087950895121613061406551FF2CF35
S11305104695F1DF08C0161617061806991FF1CF85
S113052086957105610508940895E894BB276627AC
S11305307727CB0197F908950E94AF020C946202C9
S11305400E94540238F00E945B0220F0952311F0BF
S11305500C944B020C94510211240C9496020E94A8
S1130560730270F3959FC1F3950F50E0551F629F7E
S1130570F001729FBB27F00DB11D639FAA27F00DF8
S1130580B11DAA1F649F6627B00DA11D661F829F1F
S11305902227B00DA11D621F739FB00DA11D621F04
S11305A0839FA00D611D221F749F3327A00D611D21
S11305B0231F849F600D211D822F762F6A2F112403
S11305C09F5750409AF0F1F088234AF0EE0FFF1F36
S11305D0BB1F661F771F881F91505040A9F79E3F8D
S11305E0510580F00C944B020C9496025F3FE4F3A7
S11305F0983ED4F3869577956795B795F795E795E3
S11306009F5FC1F7FE2B880F911D9695879597F9EB
S10906100895F894FFCFE9
S113061683007D0093007D00A5007D00AF007D0072
S1130626C400FA00C400FA00DC007D00DC007D0092
S1130636DC007D00DC007D00C400FA000000FA0046
S1130646DC007D00DC007D00DC007D00DC007D003C
S1130656C400FA000000FA00AF007D00AF007D0080
S1130666AF007D00AF007D00A500FA00A500FA00EA
S1130676C4007D00C4007D00C4007D00C4007D006C
S10B06868300FA000000E80300
S9030000FC
