:100000000C942A000C9447000C9447000C94470071
:100010000C9447000C9447000C9447000C94470044
:100020000C9447000C9447000C9480000C944700FB
:100030000C9447000C9447000C9447000C94470024
:100040000C9447000C9447000C9447000C94470014
:100050000C94470011241FBECFE5D8E0DEBFCDBF12
:1000600010E0A0E6B0E0E2E3F1E002C005900D92FE
:10007000A236B107D9F710E0A2E6B0E001C01D92A8
:10008000A436B107E1F70E947B000C9497000C9412
:10009000000089B7826089BF89B7816089BF13BEBC
:1000A00083B7816083BF83B7826083BF83B7886073
:1000B00083BF8CE78CBF78948FEF8ABB81E08BBBCA
:1000C0008091620090916300885E9340C8F38091B4
:1000D000600090916100809590959093610080936D
:1000E000600080916000909161008BBB1092630072
:1000F00010926200E5CF0E94490080E090E00895F0
:100100001F920F920FB60F9211248F939F9380919D
:100110006200909163000196909363008093620067
:100120009F918F910F900FBE0F901F901895F8948C
:02013000FFCFFF
:020132000100CA
:00000001FF
