:100000000C942A000C9447000C9447000C94470071
:100010000C9447000C9447000C9447000C94470044
:100020000C9447000C9447000C9447000C94470034
:100030000C9447000C9447000C9447000C94470024
:100040000C9447000C9447000C9447000C94470014
:100050000C94470011241FBECFE5D8E0DEBFCDBF12
:1000600011E0A0E6B0E0E2E1FBE002C005900D92F5
:10007000A239B107D9F723E0A2E9B1E001C01D928E
:10008000AB39B207E1F70E940E020C9487050C947D
:10009000000010BC83E389B988E18AB986E880BD95
:1000A00008955D9BFECF8CB908950E94510080E0B9
:1000B00090E0089586EB87BB82E58DB98CE890E0EF
:1000C0000E948F0208958FB9779BFECF0895779B8A
:1000D000FECF8FB10895AF92BF92DF92EF92FF9261
:1000E0000F931F93CF93DF938C01D62FD72EFC0154
:1000F00080810E946300F80181810E946300F80101
:1001000082810E946300F80183810E946300F801EC
:1001100084810E946300F80185810E9463000FEFD3
:100120001FEF0F2EF5EAEF2EF0E0FF2EF02D8FEFF0
:100130000E9463000E946700C82FA82EB12C1F9256
:100140008F93DF92DF93FF92EF920E9479020F90DC
:100150000F900F900F900F900F90CC231CF4015034
:10016000110929F7BF92AF92DF92DF9385EA90E001
:100170009F938F930E9479020F900F900F900F9092
:100180000F900F908C2FDF91CF911F910F91FF90C7
:10019000EF90DF90BF90AF90089585EC90E09F9333
:1001A0008F930E9479022FEF82E597E021508040E3
:1001B0009040E1F700C00000C19AC2982FEF80E79D
:1001C00092E0215080409040E1F700C00000C29AC8
:1001D000C198C49A2FEF80E792E021508040904070
:1001E000E1F700C00000C4981092930110929201B0
:1001F0000F900F908FEF0E94630080919201909179
:100200009301019690939301809392010A9790F342
:100210008CEC90E09F938F930E947902C49A8FE4B4
:1002200093EC0197F1F700C00000C49889EE90E0CC
:100230009F938F930E9479020F900F900F900F90D1
:1002400063EF70E088E790E00E946B008130C1F7B7
:1002500068EF70E082E790E00E946B006EEF70E064
:100260008CE690E00E946B008111F2CF1F921F92EA
:1002700085E091E09F938F930E9479020F900F90F9
:100280000F900F9080E090E008950F931F93CF930D
:10029000DF938C0162E371E080E690E00E946B00E6
:1002A00080939403811150C08EEF0E946300E80197
:1002B0001E5F89910E946300C017D107D1F78FEFAD
:1002C0000E9463008FEF0E9463008FEF0E94630023
:1002D0000E946700809394031F928F9388E391E0BC
:1002E0009F938F930E9479028091940385710F9060
:1002F0000F900F900F90853049F5C0E0D0E000E5F9
:1003000011E08FEF0E9463000E94670080939403C6
:10031000DF93CF931F928F931F930F930E947902C5
:1003200021960F900F900F900F900F900F9080914B
:1003300094038F3F21F0CF3F8FEFD80711F781E073
:10034000219629F480E003C080E001C080E0DF91C5
:10035000CF911F910F910895EF92FF920F931F93EA
:10036000CF93DF938C016CE671E086E690E00E940B
:100370006B0080939403811141C0C0E0D0E00F2E48
:10038000F2E7EF2EF1E0FF2EF02D8FEF0E946300D9
:100390000E9467008093940380958BBBDF93CF937B
:1003A000809194031F928F93FF92EF920E947902A3
:1003B00021960F900F900F900F900F900F908091BB
:1003C00094038E3FF9F0CF3F8FEFD807F1F680E02E
:1003D0001EC08FEF0E9463000E9467008993C017C0
:1003E000D107B9F78FEF0E9463000E9467008FEF7B
:1003F0000E9463000E94670081E009C080E007C09E
:1004000080E005C02196E1F3E8011E5FE2CFDF91B5
:10041000CF911F910F91FF90EF9008950F931F932D
:10042000CF93DF938FEF8ABB8EE790E09093980392
:10043000809397030E9449000E945A000E94CD00B9
:10044000EC01892B09F04EC0E5E9F3E025E931E044
:1004500080E082938150E217F307D9F7109293015D
:100460001092920184E991E00E9445018BBBE4E97E
:10047000F1E084E993E01192E817F907E1F780E0F1
:1004800092E0909393018093920184E991E00E941D
:10049000AC01882331F110929301109292010DE882
:1004A00011E0CC56DE4F88811F928F931F930F93DC
:1004B0000E9479028FE39CE90197F1F700C00000E8
:1004C000C0919201D09193012196D0939301C09352
:1004D00092010F900F900F900F90C11592E0D907E5
:1004E00000F3FFCF80E090E0DF91CF911F910F915B
:1004F0000895A0E0B0E0EFE7F2E00C946005AE01F3
:100500004B5F5F4FFA0161917191AF018091970349
:10051000909198030E94BF02E2E00C947C050F9337
:100520001F93CF93DF93E0919703F091980323817A
:1005300021FF1BC08C01D0E0C0E0F80181918F0148
:100540006091970370919803DB011896ED91FC91EF
:100550001997882331F00995892B79F3DFEFCFEFD5
:10056000ECCF8AE00995892B19F08FEF9FEF02C03D
:100570008D2F9C2FDF91CF911F910F910895ABE0AC
:10058000B0E0E5ECF2E00C9450056C017B018A01CF
:10059000FC0117821682838181FFCCC1CE010196B6
:1005A0003C01F6019381F70193FD859193FF8191C1
:1005B0007F01882309F4BAC1853239F493FD85910E
:1005C00093FF81917F01853229F4B60190E00E946A
:1005D000B604E7CF912C212C312CFFE1F315D8F094
:1005E0008B3279F038F4803279F08332A1F4232D04
:1005F00020611DC08D3261F0803369F4232D2160AC
:1006000016C0832D8260382EE32DE4603E2E2AC072
:10061000F32DF8601DC037FC2DC020ED280F2A30C7
:1006200040F08E32B9F436FC81C1232D2064322E85
:1006300019C036FE06C08AE0989E200D1124922E25
:1006400011C0EAE02E9E200D1124222EF32DF0621F
:100650003F2E08C08C3621F4832D8068382E02C0CE
:10066000883641F4F70193FD859193FF81917F01D5
:100670008111B3CF982F9F7D9554933028F40C5F50
:100680001F4F9FE399830DC0833631F0833771F09C
:10069000833509F059C021C0F801808189830E5F3C
:1006A0001F4F88248394912C530113C02801F2E03A
:1006B0004F0E511CF801A080B18036FE03C0692D99
:1006C00070E002C06FEF7FEFC5010E94AB044C01E8
:1006D0008201F32DFF773F2E16C0280122E0420E43
:1006E000511CF801A080B18036FE03C0692D70E076
:1006F00002C06FEF7FEFC5010E94A0044C01F32DF3
:10070000F0683F2E820133FC1BC0822D90E08816DA
:100710009906B0F4B60180E290E00E94B6042A94F3
:10072000F4CFF50137FC859137FE81915F01B60169
:1007300090E00E94B60421102A9421E0821A9108C8
:100740008114910471F7E8C0843611F0893641F5BF
:10075000F80137FE07C060817181828193810C5F4F
:100760001F4F08C060817181072E000C880B990B08
:100770000E5F1F4FF32DFF763F2E97FF09C0909518
:100780008095709561957F4F8F4F9F4FF0683F2EFA
:100790002AE030E0A3010E94F204882E861845C0AA
:1007A000853731F4232D2F7EB22E2AE030E025C08C
:1007B000932D997FB92E8F36C1F018F4883579F0D2
:1007C000B5C0803719F0883721F0B0C0E92FE0615B
:1007D000BE2EB4FE0DC0FB2DF460BF2E09C034FE4A
:1007E0000AC0292F2660B22E06C028E030E005C0DE
:1007F00020E130E002C020E132E0F801B7FE07C09E
:1008000060817181828193810C5F1F4F06C060817E
:10081000718180E090E00E5F1F4FA3010E94F204FF
:10082000882E8618FB2DFF773F2E36FE0DC0232D18
:100830002E7FA22E891458F434FE0BC032FC09C05E
:10084000832D8E7EA82E05C0B82CA32C03C0B82CF7
:1008500001C0B92CA4FE0FC0FE01E80DF11D80817E
:10086000803321F49A2D997EA92E09C0A2FE06C0DC
:10087000B394B39404C08A2D867809F0B394A3FC92
:1008800011C0A0FE06C0B21488F4280C922C9B184C
:100890000EC0B21460F4B60180E290E00E94B6048B
:1008A000B394F7CFB21418F42B1802C0982C212C53
:1008B000A4FE10C0B60180E390E00E94B604A2FE40
:1008C00017C0A1FC03C088E790E002C088E590E073
:1008D000B6010CC08A2D867859F0A1FE02C08BE2C9
:1008E00001C080E2A7FC8DE2B60190E00E94B60450
:1008F000891438F4B60180E390E00E94B6049A941B
:10090000F7CF8A94F301E80DF11D8081B60190E0E4
:100910000E94B6048110F5CF222009F442CEB60120
:1009200080E290E00E94B6042A94F6CFF601868118
:10093000978102C08FEF9FEF2B96E2E10C946C053C
:10094000FC010590615070400110D8F7809590959A
:100950008E0F9F1F0895FC0161507040019001109F
:10096000D8F7809590958E0F9F1F08950F931F9332
:10097000CF93DF93FB01238121FD03C08FEF9FEF16
:100980002CC022FF16C04681578124813581421731
:10099000530744F4A081B1819D012F5F3F4F318304
:1009A00020838C93268137812F5F3F4F37832683A7
:1009B00014C08B01EC01FB010084F185E02D099549
:1009C000892BE1F6D80116968D919C911797019687
:1009D00017969C938E931697CE01DF91CF911F911E
:1009E0000F910895FA01AA27283051F1203181F1A1
:1009F000E8946F936E7F6E5F7F4F8F4F9F4FAF4F27
:100A0000B1E03ED0B4E03CD0670F781F891F9A1F39
:100A1000A11D680F791F8A1F911DA11D6A0F711DED
:100A2000811D911DA11D20D009F468943F912AE0F9
:100A3000269F11243019305D3193DEF6CF010895E1
:100A4000462F4770405D4193B3E00FD0C9F7F6CF12
:100A5000462F4F70405D4A3318F0495D31FD4052DA
:100A6000419302D0A9F7EACFB4E0A6959795879570
:100A700077956795BA95C9F700976105710508954F
:100A80009B01AC010A2E06945795479537952795FB
:100A9000BA95C9F7620F731F841F951FA01D089593
:100AA0002F923F924F925F926F927F928F929F927E
:100AB000AF92BF92CF92DF92EF92FF920F931F936C
:100AC000CF93DF93CDB7DEB7CA1BDB0B0FB6F8941D
:100AD000DEBF0FBECDBF09942A88398848885F845D
:100AE0006E847D848C849B84AA84B984C884DF80CE
:100AF000EE80FD800C811B81AA81B981CE0FD11DB2
:100B00000FB6F894DEBF0FBECDBFED010895F89487
:020B1000FFCF15
:100B120058000000000151000000000169000000BF
:100B22000001770000000001400000000095000075
:100B32000002000000005500000000005350492050
:100B4200496E697469616C697A6520636F6D706C56
:100B52006574656400534420636F6D6D616E64203B
:100B6200257320726573706F6E73653A2030782535
:100B72003032780A005344494E4954005344494E96
:100B82004954206E616368204B6F626C656E7A20F7
:100B92005363686C656966650053656E6420434DF6
:100BA200444F00434D443000434D443535004143EA
:100BB2004D44343100534420496E697469616C6953
:100BC200736174696F6E20636F6D706C65746564B8
:100BD2002C207374617475733A2030782530327822
:100BE2000A00434D4432340077726974655F626C67
:100BF2006F636B2829203D203078253032780A0037
:100C020077726974655F626C6F636B2829203D207F
:100C12003078253032782C2025640A00434D443147
:100C22003700726561645F626C6F636B2829203DD7
:100C3200203078253032782C2025640A0025336450
:020C42000000B0
:00000001FF
