S00C0000554152542E73726563DC
S11300000C942A000C9434000C9434000C943400A6
S11300100C9434000C9434000C9434000C9434008C
S11300200C9434000C9434000C9434000C9434007C
S11300300C9434000C9443000C9434000C9434005D
S11300400C9434000C9434000C9434000C9434005C
S11300500C94340011241FBECFE5D8E0DEBFCDBF21
S11300600E9436000C9477000C9400008FEF84BB40
S11300701ABA85BB789483E390E00E94680089B340
S11300800E947300FCCF1F920F920FB60F9211249F
S11300902F933F934F935F936F937F938F939F938C
S11300A0AF93BF93EF93FF930E946F0085BBFF91C3
S11300B0EF91BF91AF919F918F917F916F915F91DC
S11300C04F913F912F910F900FBE0F901F90189555
S11300D090BD89B988E98AB986E880BD08955F9B97
S11300E0FECF8CB108955D9BFECF8CB90895F89432
S10500F0FFCF3C
S9030000FC
