S011000055656230395F524F4D2E7372656341
S11300000C942A000C9447000C9447000C9447006D
S11300100C9447000C9447000C9447000C94470040
S11300200C9447000C9447000C9447000C94470030
S11300300C9447000C9471000C9447000C944700F6
S11300400C9447000C9447000C9447000C94470010
S11300500C94470011241FBECFE5D8E0DEBFCDBF0E
S113006010E0A0E6B0E0ECEEF7E002C005900D92DF
S1130070AA39B107D9F720E0AAE9B0E001C01D927E
S1130080A43AB207E1F70E9460000C94F4030C94C4
S1130090000080E381BB81EA8FBD8DE08EBD8FEFD0
S11300A090E09BBD8ABD089510BC83E389B98AB1F1
S11300B088618AB98AB1806E8AB986E880BD08955C
S11300C078940E94CD000E9454000E944900FFCF02
S11300D08EE690E00E94FC0084E090E09BBD8ABD27
S11300E008951F920F920FB60F9211242F933F93EE
S11300F04F935F936F937F938F939F93AF93BF932C
S1130100CF93EF93FF9385E790E00E94FC00CCB17E
S1130110C33319F40E9468000DC0C23329F488E087
S113012090E09BBD8ABD06C0C13321F483E190E019
S11301309BBD8ABD1F92CF9383E890E09F938F93DA
S11301400E94E6000F900F900F900F90FF91EF9197
S1130150CF91BF91AF919F918F917F916F915F915B
S11301604F913F912F910F900FBE0F901F901895B4
S11301705D9BFECF8CB980E090E0089510BC83E3D2
S113018089B98AB188618AB98EE880BD81E090E03E
S113019090939D0080939C00089580919C00909181
S11301A09D00892B11F40E94BE0080E690E090939C
S11301B0A1008093A00081E090E090939B00809345
S11301C09A0086E890E00E94FC000895A0E0B0E068
S11301D0ECEEF0E00C94CD03AE014B5F5F4FFA01FF
S11301E061917191AF018091A0009091A1000E9452
S11301F02C01E2E00C94E9030F931F93CF93DF9358
S1130200E091A000F091A100238121FF1BC08C018B
S1130210D0E0C0E0F80181918F016091A00070915D
S1130220A100DB011896ED91FC911997882331F018
S11302300995892B79F3DFEFCFEFECCF8AE00995AD
S1130240892B19F08FEF9FEF02C08D2F9C2FDF9128
S1130250CF911F910F910895ABE0B0E0E2E3F1E09C
S11302600C94BD036C017B018A01FC011782168288
S1130270838181FFCCC1CE0101963C01F6019381BB
S1130280F70193FD859193FF81917F01882309F400
S1130290BAC1853239F493FD859193FF81917F0131
S11302A0853229F4B60190E00E942303E7CF912C14
S11302B0212C312CFFE1F315D8F08B3279F038F48E
S11302C0803279F08332A1F4232D20611DC08D3258
S11302D061F0803369F4232D216016C0832D826080
S11302E0382EE32DE4603E2E2AC0F32DF8601DC0A5
S11302F037FC2DC020ED280F2A3040F08E32B9F49F
S113030036FC81C1232D2064322E19C036FE06C06E
S11303108AE0989E200D1124922E11C0EAE02E9EB0
S1130320200D1124222EF32DF0623F2E08C08C36AE
S113033021F4832D8068382E02C0883641F4F701F9
S113034093FD859193FF81917F018111B3CF982F04
S11303509F7D9554933028F40C5F1F4F9FE399833E
S11303600DC0833631F0833771F0833509F059C0FD
S113037021C0F801808189830E5F1F4F88248394F4
S1130380912C530113C02801F2E04F0E511CF801C7
S1130390A080B18036FE03C0692D70E002C06FEF0B
S11303A07FEFC5010E9418034C018201F32DFF77F2
S11303B03F2E16C0280122E0420E511CF801A080F5
S11303C0B18036FE03C0692D70E002C06FEF7FEF8D
S11303D0C5010E940D034C01F32DF0683F2E8201EC
S11303E033FC1BC0822D90E088169906B0F4B60148
S11303F080E290E00E9423032A94F4CFF50137FCB5
S1130400859137FE81915F01B60190E00E9423033C
S113041021102A9421E0821A91088114910471F721
S1130420E8C0843611F0893641F5F80137FE07C07B
S113043060817181828193810C5F1F4F08C060814C
S11304407181072E000C880B990B0E5F1F4FF32D43
S1130450FF763F2E97FF09C0909580957095619522
S11304607F4F8F4F9F4FF0683F2E2AE030E0A3016B
S11304700E945F03882E861845C0853731F4232DEA
S11304802F7EB22E2AE030E025C0932D997FB92E1D
S11304908F36C1F018F4883579F0B5C0803719F07B
S11304A0883721F0B0C0E92FE061BE2EB4FE0DC044
S11304B0FB2DF460BF2E09C034FE0AC0292F26602C
S11304C0B22E06C028E030E005C020E130E002C0D2
S11304D020E132E0F801B7FE07C0608171818281BA
S11304E093810C5F1F4F06C06081718180E090E0B2
S11304F00E5F1F4FA3010E945F03882E8618FB2DF9
S1130500FF773F2E36FE0DC0232D2E7FA22E891499
S113051058F434FE0BC032FC09C0832D8E7EA82E05
S113052005C0B82CA32C03C0B82C01C0B92CA4FE60
S11305300FC0FE01E80DF11D8081803321F49A2D56
S1130540997EA92E09C0A2FE06C0B394B39404C038
S11305508A2D867809F0B394A3FC11C0A0FE06C0CE
S1130560B21488F4280C922C9B180EC0B21460F4B8
S1130570B60180E290E00E942303B394F7CFB21453
S113058018F42B1802C0982C212CA4FE10C0B6011C
S113059080E390E00E942303A2FE17C0A1FC03C0E5
S11305A088E790E002C088E590E0B6010CC08A2D8F
S11305B0867859F0A1FE02C08BE201C080E2A7FC5C
S11305C08DE2B60190E00E942303891438F4B60149
S11305D080E390E00E9423039A94F7CF8A94F30176
S11305E0E80DF11D8081B60190E00E942303811083
S11305F0F5CF222009F442CEB60180E290E00E94B9
S113060023032A94F6CFF6018681978102C08FEFE7
S11306109FEF2B96E2E10C94D903FC010590615005
S113062070400110D8F7809590958E0F9F1F089504
S1130630FC016150704001900110D8F780959095AD
S11306408E0F9F1F08950F931F93CF93DF93FB018A
S1130650238121FD03C08FEF9FEF2CC022FF16C022
S113066046815781248135814217530744F4A08180
S1130670B1819D012F5F3F4F318320838C9326816D
S113068037812F5F3F4F3783268314C08B01EC01E2
S1130690FB010084F185E02D0995892BE1F6D80151
S11306A016968D919C911797019617969C938E930D
S11306B01697CE01DF91CF911F910F910895FA0102
S11306C0AA27283051F1203181F1E8946F936E7F8D
S11306D06E5F7F4F8F4F9F4FAF4FB1E03ED0B4E07E
S11306E03CD0670F781F891F9A1FA11D680F791FBF
S11306F08A1F911DA11D6A0F711D811D911DA11DD0
S113070020D009F468943F912AE0269F11243019DF
S1130710305D3193DEF6CF010895462F4770405D7A
S11307204193B3E00FD0C9F7F6CF462F4F70405D29
S11307304A3318F0495D31FD4052419302D0A9F784
S1130740EACFB4E0A6959795879577956795BA957E
S1130750C9F700976105710508959B01AC010A2E44
S113076006945795479537952795BA95C9F7620F1B
S1130770731F841F951FA01D08952F923F924F92BF
S11307805F926F927F928F929F92AF92BF92CF921D
S1130790DF92EF92FF920F931F93CF93DF93CDB726
S11307A0DEB7CA1BDB0B0FB6F894DEBF0FBECDBF9E
S11307B009942A88398848885F846E847D848C846F
S11307C09B84AA84B984C884DF80EE80FD800C8178
S11307D01B81AA81B981CE0FD11D0FB6F894DEBF5B
S10F07E00FBECDBFED010895F894FFCFCB
S11307EC0000000200000000B80000000000747556
S11307FC726E300D005553415254205245434549B5
S113080C5645002578007072696E746620696E69AD
S10D081C7469616C697A6564000078
S9030000FC
