S01A000055656231305F574946495F455350383236362E73726563E2
S11300000C942A000C9447000C9447000C9447006D
S11300100C9447000C9447000C9447000C94470040
S11300200C9447000C9447000C9447000C94470030
S11300300C9447000C9496020C9447000C944700CF
S11300400C9447000C9447000C9447000C94470010
S11300500C94470011241FBECFE5D8E0DEBFCDBF0E
S113006011E0A0E6B0E0E0E2FCE002C005900D92F1
S1130070A634B107D9F723E0A6E4B1E001C01D928C
S1130080A234B207E1F70E948A020C940E060C9483
S11300900000A0980895F894A09AA8988FEB93E094
S11300A00197F1F700C000000E9449009AEB9A956D
S11300B0F1F700C093B3E3E3F3E03197F1F700C045
S11300C00000789481E08927817090E00895F89485
S11300D0A09AA89880E18A95F1F70E9449008AEADB
S11300E08A95F1F700C078940895F894A09AA89896
S11300F080EA8A95F1F70E9449008AE18A95F1F72E
S113010000C0789408951F93CF93DF93182FC8E00D
S1130110D0E010FF03C00E94670002C00E94750077
S113012016952197B1F7DF91CF911F9108950E9401
S11301304B00892B89F08CEC0E94830084E40E949C
S11301408300989BFECF2FE78FE492E121508040FB
S11301509040E1F700C000000895F894A09AA89890
S113016080E18A95F1F70E94490098E19A95F1F7A8
S113017083B392E99A95F1F700C078948170089559
S11301800F931F93CF9308E010E0C0E00E94AD00EE
S113019020E8829FC0011124C695C82B0150110983
S11301A0A9F78C2FCF911F910F9108950F931F934F
S11301B0CF93DF938C010E944B00892B79F08CEC58
S11301C00E9483008EEB0E948300E801075F1F4FAB
S11301D00E94C0008993C017D107D1F7DF91CF9156
S11301E01F910F91089596E890BD10BC83E389B9DF
S11301F08AB188618AB990BD579A08955D9BFECFF4
S11302008CB908950E94FE0080E090E0089598B3B0
S113021021E030E002C0220F331F8A95E2F72095D7
S1130220292328BB089598B321E030E002C0220FAF
S1130230331F8A95E2F7292B28BB08959F938F9348
S113024080E790E09F938F930E9400032FEF80E755
S113025092E0215080409040E1F700C000000F90F0
S11302600F900F900F90089581E090E00E94070195
S113027082E690E090933F0380933E030E94F30054
S11302802FEF8EE994E2215080409040E1F700C0C6
S1130290000082E090E00E94070188E790E00E945D
S11302A01E0181E890E00E941E012FEF84E39CE090
S11302B0215080409040E1F700C0000085E890E0C4
S11302C00E941E018EE890E00E941E018DE990E0DC
S11302D00E941E010895AF92BF92CF92DF92EF92D7
S11302E0FF920F931F93CF93DF93CDB7DEB7C0591F
S11302F0D1400FB6F894DEBF0FBECDBFD82EC92EA5
S1130300B62EA72EA62FB72FFD0101900020E9F7E6
S11303103197EA1BFB0BFF93EF939F938F9383EA31
S113032090E09F938F93EE24E394EF920F2EF0E9E5
S1130330FF2EF02DFF928E010F5F1F4F1F930F931F
S11303400E941603C8010E941E01AF92BF920E9430
S113035000032FEF84E39CE0215080409040E1F7BC
S113036000C00000CF92DF9281EB90E09F938F93C7
S1130370EF92FF921F930F930E941603C8010E94ED
S11303801E010FB6F894DEBF0FBECDBFC057DE4FBF
S11303900FB6F894DEBF0FBECDBFDF91CF911F9192
S11303A00F91FF90EF90DF90CF90BF90AF900895A2
S11303B06DEB70E088E491E00E94E602009729F07A
S11303C0FC01858190E0C097089587EE93E008953D
S11303D01092470110924601E8E4F1E08CE393E0C7
S11303E01192E817F907E1F70895CF93DF93CDB79A
S11303F0DEB7C959D1400FB6F894DEBF0FBECDBFEA
S113040084E090E00E9407010E94E80101E010E00E
S113041099249394812C0F2EF3ECCF2EF0E0DF2E51
S1130420F02D0F2EF0E97F2EF02DCE0101967C01E8
S11304300F2EF7EEAF2EF3E0BF2EF02D0F2EF5E0CA
S11304406F2EF02D9FEF20E782E0915020408040F6
S1130450E1F700C000000115110529F087E090E0E4
S11304600E94070104C087E090E00E941301892DD7
S1130470012B09F0882D082F10E0809160009091E5
S11304806100873E934009F440C0F89486E090E010
S11304900E9407010E949700CE018F569E4F0E9432
S11304A0D600CF56DE4F8881C159D14080FD03C0AC
S11304B0982D282D02C0962D282D2F939F93869535
S11304C01F928F93DF92CF929F927F92FF92EF922F
S11304D00E941603B70180916000909161000E9410
S11304E06B018FEF91EE24E0815090402040E1F7C2
S11304F000C00000B0926100A092600078940FB632
S1130500F894DEBF0FBECDBF9DCF86E090E00E9481
S1130510130198CF78948FEF87BB88BB80E090E07D
S11305200E9407010E9434010E94F5011F920F925C
S11305300FB60F9211242F933F934F935F936F93B2
S11305407F938F939F93AF93BF93CF93EF93FF9337
S113055083E090E00E940701CCB180914601909124
S11305604701843F914010F00E94E80180914601C8
S113057090914701FC01E85BFE4FC0830196909384
S1130580470180934601CA3079F4809160009091CC
S11305906100873E934031F40E94D801909361003A
S11305A0809360000E94E801FF91EF91CF91BF9189
S11305B0AF919F918F917F916F915F914F913F91F7
S11305C02F910F900FBE0F901F901895FB01519122
S11305D05523A9F0BF01DC014D9145174111E1F705
S11305E059F4CD010190002049F04D91401541117D
S11305F0C9F3FB014111EFCF81E090E00197089529
S1130600A0E0B0E0E6E0F3E00C94E705AE014B5F58
S11306105F4FFA0161917191AF0180913E03909116
S11306203F030E944603E2E00C940306AEE0B0E010
S1130630ECE1F3E00C94E5050D891E898F89988D12
S113064026E02C831A83098397FF02C080E090E898
S113065001979E838D83AE01455E5F4F698D7A8DD0
S1130660CE0101960E9446034D815E8157FD0AC06A
S11306702F813885421753070CF49A01F801E20FD1
S1130680F31F10822E96E4E00C940106ABE0B0E078
S1130690ECE4F3E00C94D7056C017B018A01FC01C6
S11306A017821682838181FFCCC1CE0101963C0161
S11306B0F6019381F70193FD859193FF81917F0169
S11306C0882309F4BAC1853239F493FD859193FFE7
S11306D081917F01853229F4B60190E00E943D05A5
S11306E0E7CF912C212C312CFFE1F315D8F08B327C
S11306F079F038F4803279F08332A1F4232D20612B
S11307001DC08D3261F0803369F4232D216016C041
S1130710832D8260382EE32DE4603E2E2AC0F32D13
S1130720F8601DC037FC2DC020ED280F2A3040F0A2
S11307308E32B9F436FC81C1232D2064322E19C0C7
S113074036FE06C08AE0989E200D1124922E11C018
S1130750EAE02E9E200D1124222EF32DF0623F2E6E
S113076008C08C3621F4832D8068382E02C0883668
S113077041F4F70193FD859193FF81917F018111EC
S1130780B3CF982F9F7D9554933028F40C5F1F4F5F
S11307909FE399830DC0833631F0833771F083353D
S11307A009F059C021C0F801808189830E5F1F4F71
S11307B088248394912C530113C02801F2E04F0E36
S11307C0511CF801A080B18036FE03C0692D70E091
S11307D002C06FEF7FEFC5010E9432054C01820118
S11307E0F32DFF773F2E16C0280122E0420E511C44
S11307F0F801A080B18036FE03C0692D70E002C00C
S11308006FEF7FEFC5010E9427054C01F32DF068BF
S11308103F2E820133FC1BC0822D90E0881699067E
S1130820B0F4B60180E290E00E943D052A94F4CF32
S1130830F50137FC859137FE81915F01B60190E0A7
S11308400E943D0521102A9421E0821A9108811406
S1130850910471F7E8C0843611F0893641F5F80146
S113086037FE07C060817181828193810C5F1F4FC5
S113087008C060817181072E000C880B990B0E5FF4
S11308801F4FF32DFF763F2E97FF09C0909580955B
S1130890709561957F4F8F4F9F4FF0683F2E2AE0F0
S11308A030E0A3010E947905882E861845C085375B
S11308B031F4232D2F7EB22E2AE030E025C0932D73
S11308C0997FB92E8F36C1F018F4883579F0B5C008
S11308D0803719F0883721F0B0C0E92FE061BE2ECF
S11308E0B4FE0DC0FB2DF460BF2E09C034FE0AC057
S11308F0292F2660B22E06C028E030E005C020E192
S113090030E002C020E132E0F801B7FE07C06081A8
S11309107181828193810C5F1F4F06C06081718158
S113092080E090E00E5F1F4FA3010E947905882E9E
S11309308618FB2DFF773F2E36FE0DC0232D2E7F0C
S1130940A22E891458F434FE0BC032FC09C0832D46
S11309508E7EA82E05C0B82CA32C03C0B82C01C0D1
S1130960B92CA4FE0FC0FE01E80DF11D8081803377
S113097021F49A2D997EA92E09C0A2FE06C0B39433
S1130980B39404C08A2D867809F0B394A3FC11C0F3
S1130990A0FE06C0B21488F4280C922C9B180EC03A
S11309A0B21460F4B60180E290E00E943D05B39475
S11309B0F7CFB21418F42B1802C0982C212CA4FEE3
S11309C010C0B60180E390E00E943D05A2FE17C06E
S11309D0A1FC03C088E790E002C088E590E0B6017E
S11309E00CC08A2D867859F0A1FE02C08BE201C0AA
S11309F080E2A7FC8DE2B60190E00E943D058914D7
S1130A0038F4B60180E390E00E943D059A94F7CF54
S1130A108A94F301E80DF11D8081B60190E00E94F3
S1130A203D058110F5CF222009F442CEB60180E2C3
S1130A3090E00E943D052A94F6CFF60186819781C5
S1130A4002C08FEF9FEF2B96E2E10C94F305FC01BB
S1130A500590615070400110D8F7809590958E0FE5
S1130A609F1F0895FC016150704001900110D8F758
S1130A70809590958E0F9F1F08950F931F93CF938A
S1130A80DF93FB01238121FD03C08FEF9FEF2CC077
S1130A9022FF16C0468157812481358142175307AE
S1130AA044F4A081B1819D012F5F3F4F31832083A6
S1130AB08C93268137812F5F3F4F3783268314C061
S1130AC08B01EC01FB010084F185E02D0995892B54
S1130AD0E1F6D80116968D919C9117970196179679
S1130AE09C938E931697CE01DF91CF911F910F9116
S1130AF00895FA01AA27283051F1203181F1E894B0
S1130B006F936E7F6E5F7F4F8F4F9F4FAF4FB1E0FC
S1130B103ED0B4E03CD0670F781F891F9A1FA11DF7
S1130B20680F791F8A1F911DA11D6A0F711D811DF8
S1130B30911DA11D20D009F468943F912AE0269FBD
S1130B4011243019305D3193DEF6CF010895462F1C
S1130B504770405D4193B3E00FD0C9F7F6CF462FFD
S1130B604F70405D4A3318F0495D31FD4052419366
S1130B7002D0A9F7EACFB4E0A69597958795779523
S1130B806795BA95C9F700976105710508959B01AA
S1130B90AC010A2E06945795479537952795BA9533
S1130BA0C9F7620F731F841F951FA01D08952F920C
S1130BB03F924F925F926F927F928F929F92AF92E9
S1130BC0BF92CF92DF92EF92FF920F931F93CF9336
S1130BD0DF93CDB7DEB7CA1BDB0B0FB6F894DEBFCD
S1130BE00FBECDBF09942A88398848885F846E84F3
S1130BF07D848C849B84AA84B984C884DF80EE803D
S1130C00FD800C811B81AA81B981CE0FD11D0FB645
S1130C10F894DEBF0FBECDBFED010895F894FFCF69
S1130C20E7030000000200000000020100000000D1
S1130C3041542B25730D0A0043574D4F44453D3213
S1130C4000525354004349504D55583D30004349D8
S1130C50505345525645523D312C38300043494695
S1130C6053520043495053454E443D25752C257538
S1130C7000434950434C4F53453D2575002B495083
S1130C80442C00485454502F312E3120323030201F
S1130C904F4B0D0A436F6E74656E742D74797065D5
S1130CA03A20746578742F68746D6C0A0A0A3C687B
S1130CB0746D6C3E3C6D657461206368617273652C
S1130CC0743D277574662D38272F3E3C6865616432
S1130CD03E3C68313E43757272656E742054656D96
S1130CE070657261747572653A2025642C25643CC4
S1130CF02F68313E3C2F686561643E3C2F68746DFB
S1090D006C3E0D0A000028
S9030000FC
