S010000055656234413133632E73726563BC
S11300000C942A000C9447000C9447000C9447006D
S11300100C9447000C9447000C9447000C94470040
S11300200C9447000C9447000C947F000C944700F8
S11300300C9447000C9447000C9447000C94470020
S11300400C9447000C9447000C9447000C94470010
S11300500C94470011241FBECFE5D8E0DEBFCDBF0E
S113006010E0A0E6B0E0E0E8F1E002C005900D92F7
S1130070A036B107D9F720E0A0E6B0E001C01D9298
S1130080A236B207E1F70E9449000C94BE000C941A
S1130090000089B7826089BF89B7816089BF13BEB8
S11300A083B7816083BF83B7826083BF83B788606F
S11300B083BF8CE78CBF78948FEF8ABB81E08BBBC6
S11300C020E030E0EAE0F0E080916000909161008F
S11300D0883E9340C8F32F5F3F4FC901BF010E9480
S11300E0960062957295707F7627607F7627862BBF
S11300F080958BBB1092610010926000E5CF1F9237
S11301000F920FB60F9211248F939F9380916000EA
S113011090916100019690936100809360009F919B
S11301208F910F900FBE0F901F90189597FB072E7D
S113013016F4009407D077FD09D00E94AA0007FCAA
S113014005D03EF4909581959F4F089570956195E3
S11301507F4F0895AA1BBB1B51E107C0AA1FBB1FF9
S1130160A617B70710F0A61BB70B881F991F5A953F
S1130170A9F780959095BC01CD010895F894FFCF1F
S9030000FC
